:100000000C94BD010C9476280C94A7280C94D82845
:100010000C9409290C943A290C946B290C949C2972
:100020000C94CD290C94E7010C94E7010C94E701A2
:100030000C94E7010C94E7010C94E7010C94E701A0
:100040000C94E7010C94E7010C94E7010C94E70190
:100050000C94E7010C94E7010C94E7010C94FE2941
:100060000C94E7010C94F92C0C942F2D0C94E701BF
:100070000C94E7010C94E7010C94E7010C94E70160
:100080000C94E7010C94E7010C94E7010C94E70150
:100090000C94E7010C94E7010C94E7010C94E70140
:1000A0000C94E7010C94E7010C94E7010C94E70130
:1000B0000C94E7010C94E7010C94E7010C94E70120
:1000C0000C94E7010C94E7010C94E7010C94E70110
:1000D0000C94E7010C94E7010C94902D0C94C62D20
:1000E0000C94E701AF10EC10EC10EC10EC10EC10DD
:1000F000EC10450FEC10EC10EC10EC10EC106F1045
:1001000068108110DE104D0F7E10DB104A0F7B103F
:10011000D81050281A2822282E283B285C28692825
:10012000CF2AD22AC12AC52ACB2A092BD62ADA2AD3
:10013000E02AE42AE82AEE2AF22AF62A092BFC2AE7
:10014000002B042B00407A10F35A00A0724E1809BD
:100150000010A5D4E80000E87648170000E40B542E
:10016000020000CA9A3B000000E1F50500008096FD
:100170009800000040420F000000A086010000002F
:10018000102700000000E8030000000064000000E9
:1001900000000A00000000000100000000002C76B2
:1001A000D888DC674F0823DFC1DFAE59E1B1B796CD
:1001B000E5E3E453C63AE651997696E8E6C284262A
:1001C000EB898C9B62ED407C6FFCEFBC9C9F40F206
:1001D000BAA56FA5F490055A2AF75C936B6CF96782
:1001E0006DC11BFCE0E40D47FEF520E6B500D0ED47
:1001F000902E0300943577050080841E08000020AF
:100200004E0A000000C80C333333330F986E12834C
:100210001141EF8D2114893BE65516CFFEE6DB1820
:10022000D1844B381BF77C1D901DA4BBE4242032E5
:1002300084725E228100C9F124ECA1E53D277C3C5B
:100240003E5E2B3D3F2F5B5D3B2C2A225C00000075
:100250000A0B02090C0D0E08070304010000000040
:10026000000000000000000000000000000000008E
:10027000000000000000000000001211100000004B
:10028000000000000000000000000000000000006E
:10029000000000000102102020080810204010205B
:1002A000408002010201080402010102040810203A
:1002B0004080804020100804020180040201804038
:1002C00020100804020108040201010204081020A1
:1002D000408001020408102040800505050507053F
:1002E00008080808020202020A0A080804040404B2
:1002F00001010101010101010303030303030303DE
:10030000040707070C0C0C0C0C0C0C0C020202026C
:1003100006060606060606060B0B0B0B0B0B0B0B55
:10032000000020002300260029002C002F003200AE
:100330000001000003010601090100002200250060
:1003400028002B002E0031003400020100000501BE
:1003500008010B0100002100240027002A002D00C5
:100360003000330001010000040107010A017F0E83
:1003700000154718632DFA2DC90E11241FBECFEFAB
:10038000D1E2DEBFCDBF13E0A0E0B2E0EEE6F3E7DE
:1003900000E00BBF02C007900D92A63AB107D9F753
:1003A00028E0A6EAB3E001C01D92A836B207E1F743
:1003B00011E0CCEBD1E004C02197FE010E94213472
:1003C000C73BD107C9F70E94282E0C94AA390C9478
:1003D0000000FC018281938108950F931F93CF93B6
:1003E000DF9300D000D000D0CDB7DEB78C01D801AC
:1003F000ED91FC910190F081E02DC801099518164E
:1004000019067CF4D801ED91FC910684F785E02D66
:10041000B801CE0101960995CE0101960E94C92F1F
:10042000E6CF26960FB6F894DEBF0FBECDBFDF91A4
:10043000CF911F910F910895AF92BF92CF92DF920B
:10044000EF92FF920F931F93CF93DF9300D000D0D2
:1004500000D0CDB7DEB77C018B01DB0112968D9108
:100460009C9113971816190634F063E272E0C701E5
:100470000E9437303DC0019799F1FB01648175817D
:10048000DB011696AD90BC901797CE0101960E94A5
:100490006330F801C480D580C114D10431F0C601A5
:1004A0000E94C92FC6010E94392ED8011596BC9210
:1004B000AE92149712968D919C9113970197139673
:1004C0009C938E9312971C961C92BE016F5F7F4F78
:1004D000C7010E946330CE0101960E94C92F08C057
:1004E000DB01ED91FC910484F585E02DC7010995B0
:1004F000C70126960FB6F894DEBF0FBECDBFDF91C1
:10050000CF911F910F91FF90EF90DF90CF90BF9010
:10051000AF90089582E00E94762B9093B10480936F
:10052000B0042091B2043091B304232BA1F40197BD
:1005300091F483E00E94762B2091AE043091AF04B9
:10054000892B19F42F5F3F4F02C02150310930939E
:10055000AF042093AE048091B0049091B1049093C5
:10056000B3048093B20408958FE30E94762B892B05
:1005700039F080E40E94762B21E0892B41F006C0FF
:1005800080E40E94762B21E0892B09F420E020935F
:10059000DD0381E08093DE030895EF92FF920F93D5
:1005A0001F93CF93DF93EC017B0188E090E00E94E2
:1005B000372E8C0188E0F80111928A95E9F763E201
:1005C00072E0C8010E943730B701C8010E944C3068
:1005D000F801178216828C819D81892B29F0EE818A
:1005E000FF811783068302C01D830C831F830E8344
:1005F0008A819B8101969B838A831C8681E0DF919F
:10060000CF911F910F91FF90EF900895CF92DF92BD
:10061000EF92FF920F931F93CF93DF9300D000D000
:1006200000D0CDB7DEB78C016B01DC0112968D9145
:100630009C911397892BA1F4ED91FC91E480F580B6
:10064000CE0101960E946330BE016F5F7F4FC801EB
:10065000F7010995182FCE0101960E94C92F25C0D8
:1006600088E090E00E94372E7C0188E0D7011D923F
:100670008A95E9F763E272E0C7010E943730F8011A
:1006800084819581D70117969C938E931697B60116
:10069000C7010E944C30F801F582E4828281938187
:1006A000019693838283148611E0812F26960FB6DC
:1006B000F894DEBF0FBECDBFDF91CF911F910F9198
:1006C000FF90EF90DF90CF9008952F923F924F923E
:1006D0005F926F927F928F929F92AF92BF92CF92D2
:1006E000DF92EF92FF920F931F93CF93DF9300D08F
:1006F0001F92CDB7DEB75C014B012901FB010481DC
:10070000158101501109612C712CCC24CA94DC2C68
:10071000212C312CE12CF12C7B826A8206151705E5
:100720007CF14E145F042CF16A817B81C401498302
:100730000E94E0312A813B812F5F3F4F498184171E
:1007400041F08A819B818017910719F0DB82CA8270
:100750000CC09FEFE91AF90A1601EFEF2E1A3E0AB4
:100760006016710611F43B832A833901CA80DB804D
:10077000D3CF9601A101B401C5010E94E23108C0A6
:100780004E145F04B4F363E272E0C5010E94373097
:10079000C5010F900F900F90DF91CF911F910F9196
:1007A000FF90EF90DF90CF90BF90AF909F908F9091
:1007B0007F906F905F904F903F902F900895CF92D1
:1007C000DF92FF920F931F93CF93DF93CDB7DEB7E6
:1007D0006B970FB6F894DEBF0FBECDBF6C018B01D7
:1007E00041E0B601CE0101960E949614CE01019619
:1007F0000E94EC12F82ECE010196F11003C00E9467
:10080000DA1227C00E947E128111EACF8B819C816F
:10081000F801938382838D819E81AF81B885848323
:100820009583A683B78389859A85AB85BC858087A8
:100830009187A287B3878DE0FE013D96D8011C9673
:1008400001900D928A95E1F78A8D9B8DF801928F28
:10085000818F8F2D6B960FB6F894DEBF0FBECDBF84
:10086000DF91CF911F910F91FF90DF90CF9008956E
:1008700061E08EE30E940A2B60E08EE30E94462B2B
:100880001092D8031092D9031092DA031092DB036E
:100890001092D4031092D5031092D6031092D7036E
:1008A0001092D3030895CF92DF92EF92FF9280913E
:1008B000D303882389F1C090D803D090D903E09066
:1008C000DA03F090DB038091D4039091D503A091DB
:1008D000D603B091D703C80ED91EEA1EFB1E0E9494
:1008E000482AC616D706E806F906B0F460E08EE39B
:1008F0000E94462B1092D8031092D9031092DA036B
:100900001092DB031092D4031092D5031092D603F9
:100910001092D7031092D303FF90EF90DF90CF9007
:1009200008956093D8037093D9038093DA0390936A
:10093000DB0361E08EE30E94462B0E94482A60930D
:10094000D4037093D5038093D6039093D70381E0AB
:100950008093D30308958F929F92AF92BF92CF92CC
:10096000DF92EF92FF920F931F93CF93DF93EC01EF
:100970005B016A01490163E272E00E943730B50110
:10098000CE010E944C309B868A86DD86CC86B601DD
:10099000DD0C880B990B0E94DD325B016C019B0121
:1009A000AC01B701C8010E94D63287FD12C0B40164
:1009B000990C880B990B0E94DD325B016C019B0145
:1009C000AC01B701C8010E948D33181614F057010D
:1009D0006801A501B6014E835F8368877987DF913F
:1009E000CF911F910F91FF90EF90DF90CF90BF902C
:1009F000AF909F908F90089563E272E00C9437302F
:100A0000AF92BF92CF92DF92EF92FF920F931F931C
:100A1000CF93DF937C01CB01BA01F70126813781A7
:100A2000408551850E946A325B016C01F701648543
:100A30007585072E000C880B990B0E94DD328B0107
:100A4000D82FC92F9B01482F592FB501C6010E94ED
:100A5000D63287FD18C0F70162857385072E000C1A
:100A6000880B990B0E94DD328B01D82FC92F9B0177
:100A7000482F592FB501C6010E948D3318161CF05E
:100A80008501DC2DCD2DA8016D2F7C2FF70146832C
:100A9000578360877187DF91CF911F910F91FF90EE
:100AA000EF90DF90CF90BF90AF900895AF92BF923C
:100AB000CF92DF92EF92FF920F931F93CF93DF932A
:100AC0007C015A016B01FC0164857585072E000CC1
:100AD000880B990B0E94DD328B01D82FC92F9B0107
:100AE000482F592FB501C6010E94D63287FD18C084
:100AF000F70162857385072E000C880B990B0E9405
:100B0000DD328B01D82FC92F9B01482F592FB501FA
:100B1000C6010E948D3318161CF08501DC2DCD2DE9
:100B2000A8016D2F7C2FF70146835783608771875B
:100B3000DF91CF911F910F91FF90EF90DF90CF90B9
:100B4000BF90AF900895CF93DF93CDB7DEB7629794
:100B50000FB6F894DEBF0FBECDBF6AEA73E0CE01D8
:100B60000D960E94633020E030E04CE2BE01635FEE
:100B70007F4FCE0107960E94650321E030E04CE3F1
:100B8000BE01695F7F4FCE0101960E946503BE01E1
:100B90006F5F7F4F8BE994E00E944C30CE0101964D
:100BA0000E94C92FCE0107960E94C92FCE010D9633
:100BB0000E94C92F6AEA73E0CE010D960E9463304D
:100BC00024E030E04CE2BE01635F7F4FCE01079628
:100BD0000E94650321E030E04AE3BE01695F7F4F78
:100BE000CE0101960E946503CE0101960E945E32FD
:100BF0000E94DD32AB01BC018DE894E00E945605F5
:100C0000CE0101960E94C92FCE0107960E94C92FDE
:100C1000CE010D960E94C92F6AEA73E0CE010796B5
:100C20000E94633025E030E04CE2BE01695F7F4FF7
:100C3000CE0101960E946503CE0101960E945E32AC
:100C40000E94DD32AB01BC018FE794E00E945605A3
:100C5000CE0101960E94C92FCE0107960E94C92F8E
:100C60006AEA73E0CE0107960E94633026E030E026
:100C70004CE2BE01695F7F4FCE0101960E94650381
:100C8000CE0101960E945E320E94DD32AB01BC01B2
:100C900081E794E00E945605CE0101960E94C92F7B
:100CA000CE0107960E94C92F62960FB6F894DEBF58
:100CB0000FBECDBFDF91CF910895EF920F93CF93E9
:100CC000DF93CDB7DEB7CF56D1090FB6F894DEBFAC
:100CD0000FBECDBF83E0E82E04E022E132E045E123
:100CE00052E066E072E0CE0101960E94A12486E007
:100CF000FE013396A1EEB3E001900D928A95E1F7E3
:100D000084E1FE013996A7EEB3E001900D928A9539
:100D1000E1F78CE3FE017D96ABEFB3E001900D921D
:100D20008A95E1F76D968CAD9DADAEADBFAD6D977B
:100D30008093370490933804A0933904B0933A0415
:100D4000A1968CAD9DADAEADBFADA19780933B0498
:100D500090933C04A0933D04B0933E04A3968EADC3
:100D60009FADA3979093400480933F04A5968EADCA
:100D70009FADA5979093420480934104A7968EADB2
:100D80009FADA7979093440480934304A9968EAD9A
:100D90009FADA9979093460480934504AB968EAD82
:100DA0009FADAB979093480480934704AD968EAD6A
:100DB0009FADAD9790934A0480934904AE968FAD52
:100DC000AE9780934B04E0968EAD9FADE0979093E5
:100DD0004D0480934C0410924E04C159DF4F0FB65E
:100DE000F894DEBF0FBECDBFDF91CF910F91EF9092
:100DF00008950F931F93CF93DF93EC018B010E9413
:100E00004C30F80186819781A085B1858E839F83C0
:100E1000A887B987828593859B878A8784859585EE
:100E20009D878C87CE01DF91CF911F910F910895FF
:100E3000EF92FF920F931F93CF93DF93CDB7DEB75F
:100E400064970FB6F894DEBF0FBECDBF81EA94E081
:100E50000E94ED0164E272E08BE994E00E946C3044
:100E600069E272E0CE010F960E943730E12CF12C3E
:100E7000870128EE33E048E15CEFBE01615F7F4F00
:100E8000CE0101960E94AB04BE016F5F7F4F8DE8DB
:100E900094E00E94F906CE0101960E94C92FCE016E
:100EA0000F960E94C92F6BE272E0CE010F960E944E
:100EB000373028EE33E048E15CEFBE01615F7F4FE1
:100EC000CE0101960E94AB04BE016F5F7F4F8FE79A
:100ED00094E00E94F906CE0101960E94C92FCE012E
:100EE0000F960E94C92F6DE272E0CE010F960E940C
:100EF000373028EE33E048E15CEFBE01615F7F4FA1
:100F0000CE0101960E94AB04BE016F5F7F4F81E767
:100F100094E00E94F906CE0101960E94C92FCE01ED
:100F20000F960E94C92F6FE272E0CE010F960E94C9
:100F30003730E12C10E8F12E0BE315E428E833E11B
:100F400040E050E0BE01615F7F4FCE0101960E94FC
:100F5000AB04BE016F5F7F4F83E694E00E94F90609
:100F6000CE0101960E94C92FCE010F960E94C92F73
:100F700064E672E0CE010F960E943730E12C10EA51
:100F8000F12E0CE016E420E536E440E050E0BE012E
:100F9000615F7F4FCE0101960E94AB04BE016F5F7F
:100FA0007F4F85E594E00E94F906CE0101960E94EC
:100FB000C92FCE010F960E94C92F64960FB6F894E0
:100FC000DEBF0FBECDBFDF91CF911F910F91FF907C
:100FD000EF90089560E08DE30E940A2B61E08DE3BD
:100FE0000E94462B60E085E00E940A2B61E085E0CC
:100FF0000E94462B60E086E00E940A2B61E086E0BA
:101000000E94462B60E087E00E940A2B61E087E0A7
:101010000E94462B60E088E00E940A2B61E088E095
:101020000E94462B60E089E00E940A2B61E089E083
:101030000E94462B60E08AE00E940A2B61E08AE071
:101040000E94462B60E082E00E940A2B60E083E071
:101050000E940A2B61E08BE00E940A2B60E08BE08B
:101060000E94462B60E08CE00E940A2B61E08CE03D
:101070000E94462B61E08DE00E940A2B60E08DE02B
:101080000E94462B41E050E06AE872E082E00E9454
:10109000042882E00E94762B9093B1048093B004E0
:1010A00082E00E94762B9093B3048093B20408955B
:1010B0008DE30E94762B892B91F085E00E94762BA0
:1010C000892B81F086E00E94762B892B71F087E0D6
:1010D0000E94762B892B61F085E090E0089580E0F6
:1010E00090E0089581E090E0089582E090E0089516
:1010F00083E090E0089588E00E94762B892B69F0C8
:1011000089E00E94762B892B59F08AE00E94762B89
:10111000892B49F083E090E0089580E090E0089505
:1011200081E090E0089582E090E0089560E08FE330
:101130000E940A2B60E080E40E940A2B60E081E4B8
:101140000E940A2B61E081E40E94462B41E050E0BE
:1011500064EB72E08FE30E9404281092DC03089590
:101160009093500480934F041092520410925104B3
:1011700088EE93E090935404809353040895F89478
:101180000E94180780E596E40E94B0080E945D0660
:101190000E9496080E94EA070E943804789426E08C
:1011A00040E052EC61E070E08AE297E00E94942C0B
:1011B00026E040E052EC61E070E087EC97E00C94B0
:1011C000942CDC011496ED91FC9115971C968C9152
:1011D0001C97882361F01A962D913C911B976217FA
:1011E00073072CF01896ED91FC9119970AC020E036
:1011F00030E007C03097C9F00680F781E02D2F5FFF
:101200003F4F26173707B4F32617370771F481E0ED
:101210001C968C931C971B963C932E931A971996A9
:10122000FC93EE931897CF01089580E090E0089525
:10123000AF92BF92CF92DF92EF92FF920F931F93E4
:10124000CF93DF9300D000D000D0CDB7DEB78C01B4
:101250006B015A01DC0112968D919C9113976817CE
:1012600079072CF0ED91FC91E480F58007C0672BA5
:10127000B1F4D801ED91FC91E680F780B501CE0183
:1012800001960E946330BE016F5F7F4FC801F70176
:101290000995182FCE0101960E94C92F2CC088E015
:1012A00090E00E94372E7C0188E0D7011D928A953C
:1012B000E9F763E272E0C7010E943730B60161507E
:1012C0007109C8010E94E1086C01B501C7010E94C3
:1012D0004C30F60186819781D70117969C938E93A7
:1012E0001697F782E682F8018281938101969383B3
:1012F0008283148611E0812F26960FB6F894DEBF04
:101300000FBECDBFDF91CF911F910F91FF90EF9056
:10131000DF90CF90BF90AF9008950F931F93CF931E
:10132000DF9300D000D000D0CDB7DEB78C016AE0EB
:1013300070E080E090E00E94910460E472E0CE01F1
:1013400001960E943730B801CE0101960E942131EA
:10135000BC01C8010E944C30CE0101960E94C92FE9
:10136000B801CE0101960E946330AE014F5F5F4F1E
:1013700060E070E081EA94E00E941809CE010196D5
:101380000E94C92F26960FB6F894DEBF0FBECDBFC0
:10139000DF91CF911F910F910895AF92BF92CF929D
:1013A000DF92EF92FF920F931F93CF93DF93CDB70E
:1013B000DEB762970FB6F894DEBF0FBECDBF8C01CB
:1013C0006A017B01590163E272E0CE010D960E9431
:1013D000373002301105B1F04CF40115110579F0E8
:1013E00001301105C1F46BE272E011C00330110548
:1013F00061F00430110579F464E672E008C069E236
:1014000072E005C06DE272E002C06FE272E0CE01F0
:101410000D960E946C30B501CE0101960E9463309A
:10142000BE01635F7F4FCE0101960E942131B7015B
:10143000A6010E944D31BC01CE0107960E94633087
:10144000CE0101960E94C92FBE01695F7F4FCE0178
:1014500001960E946330CE0101960E948D09B82E3C
:10146000CE0101960E94C92FBB2051F10230110517
:10147000E1F05CF40115110599F00130110501F559
:10148000B701A6018FE794E019C00330110591F070
:1014900004301105A9F4B701A60185E594E00EC05A
:1014A000B701A6018DE894E009C0B701A60181E764
:1014B00094E004C0B701A60183E694E00E94000511
:1014C000CE0107960E94C92FCE010D960E94C92F0A
:1014D00062960FB6F894DEBF0FBECDBFDF91CF91FD
:1014E0001F910F91FF90EF90DF90CF90BF90AF9042
:1014F0000895CF92DF92EF92FF92CF93DF9300D0C7
:1015000000D000D0CDB7DEB78091190290911A02B9
:10151000019709F090C08091AE049091AF04892B9F
:1015200009F489C00E9458089093B7048093B604C8
:101530000E947B089093B5048093B4042091B60474
:101540003091B7042530310509F475C08330910519
:1015500009F471C08130910561F08230910589F004
:10156000892BB9F4C12CD12C40E8E42E4FE3F42EA2
:1015700010C09DECC92E9CECD92EED2C9DE3F92ECC
:1015800008C08AE0C82E87EDD82E83E2E82E8CE3CF
:10159000F82E2130310531F11CF4232B19F147C00D
:1015A00022303105F9F02330310509F040C063E203
:1015B00072E0CE0101960E9437306091AE047091C6
:1015C000AF04072E000C880B990B0E94DD329B01A3
:1015D000AC01C701B6010E94923320E030E04AE737
:1015E00054E414C061EB73E0CE0101960E946330B5
:1015F0006091AE047091AF04072E000C880B990B1C
:101600000E94DD329B01AC01C701B6010E949233FA
:10161000AB01BC019E012F5F3F4F8091B6049091BA
:10162000B7040E94CD09CE0101960E94C92F1092E5
:10163000AF041092AE0426960FB6F894DEBF0FBE2C
:10164000CDBFDF91CF91FF90EF90DF90CF900895C5
:10165000CF93DF93CDB7DEB762970FB6F894DEBFB6
:101660000FBECDBF81E090E090935204809351046F
:1016700060915304709154044AE0CE010D960E948B
:10168000833060E672E0CE0107960E943730BE01DB
:10169000635F7F4FCE0107960E94213166E672E0BC
:1016A0000E943431BC01CE0101960E946330CE010C
:1016B00001960E948D09CE0101960E94C92FCE018C
:1016C00007960E94C92FCE010D960E94C92F6296DF
:1016D0000FB6F894DEBF0FBECDBFDF91CF91089556
:1016E000CF93DF9300D000D000D0CDB7DEB71092FB
:1016F00052041092510467E772E0CE0101960E94F5
:101700003730CE0101960E948D09CE0101960E94CC
:10171000C92F26960FB6F894DEBF0FBECDBFDF915E
:10172000CF910895CF93DF93CDB7DEB762970FB611
:10173000F894DEBF0FBECDBF609153047091540486
:10174000860F971F97FD0AC020914F0430915004D7
:10175000BC012817390724F4B90102C060E070E029
:1017600070935404609353044AE0CE010D960E9496
:10177000833064E672E0CE0107960E943730BE01E6
:10178000635F7F4FCE0107960E942131BC01CE01DD
:1017900001960E946330CE0101960E948D09CE0110
:1017A00001960E94C92FCE0107960E94C92FCE0133
:1017B0000D960E94C92F62960FB6F894DEBF0FBE39
:1017C000CDBFDF91CF910895CF93DF93CDB7DEB733
:1017D00062970FB6F894DEBF0FBECDBF97FD0AC06B
:1017E00020914F0430915004BC012817390724F48C
:1017F000B90102C060E070E0709354046093530438
:101800004AE0CE010D960E94833064E672E0CE017C
:1018100007960E943730BE01635F7F4FCE01079667
:101820000E942131BC01CE0101960E946330CE019D
:1018300001960E948D09CE0101960E94C92FCE010A
:1018400007960E94C92FCE010D960E94C92F62965D
:101850000FB6F894DEBF0FBECDBFDF91CF910895D4
:1018600088E893E10C94E40B81E40E94762B0197C5
:1018700021F48091DC0381111BC081E40E94762B4E
:10188000892B21F48091DC038823A9F08091DE0369
:101890008823B9F08091DD03882319F084EF91E06B
:1018A00002C08CE09EEF0E94920B1092DE0308951E
:1018B0001092DC03E2CF0E94300C81E08093DC03C5
:1018C000E5CF08950F931F93CF93DF9300D000D0FF
:1018D00000D0CDB7DEB78C016AE070E080E090E028
:1018E0000E9491046AE872E0CE0101960E943730AE
:1018F000B801CE0101960E942131BC01C8010E94AD
:101900004C30CE0101960E94C92FB801CE0101963C
:101910000E946330AE014F5F5F4F60E070E081EA8C
:1019200094E00E941809CE0101960E94C92F2696C4
:101930000FB6F894DEBF0FBECDBFDF91CF911F91E0
:101940000F910895AF92BF92CF92DF92EF92FF92E4
:101950000F931F93CF93DF9300D000D000D0CDB76B
:10196000DEB77C018B01FB016281738116161706BD
:101970002CF063E272E00E9437304EC0F80114860A
:101980006130710529F162507109C8010E94E108B6
:101990006C01FC0166817781CE0101960E94633063
:1019A000F601A680B780A114B10431F0C5010E94F0
:1019B000C92FC5010E94392EF60117821682F8013F
:1019C000D782C682828193810197938382831AC0D2
:1019D000F80164817581CE0101960E946330F8019F
:1019E000C480D580C114D10431F0C6010E94C92F32
:1019F000C6010E94392EF8011582148217821682C0
:101A000013821282BE016F5F7F4FC7010E94633055
:101A1000CE0101960E94C92FC70126960FB6F894F1
:101A2000DEBF0FBECDBFDF91CF911F910F91FF9011
:101A3000EF90DF90CF90BF90AF900895CF93DF935A
:101A4000EC01CB01BA010E94E108009729F0BC012A
:101A5000CE010E94633005C063E272E0CE010E94B5
:101A60003730CE01DF91CF910895CF93DF9377FD8B
:101A70000EC0FC01228133816217730744F4EA012E
:101A80000E94E108BE010E944C3081E001C080E06C
:101A9000DF91CF910895FF920F931F93CF93DF9320
:101AA000CDB7DEB762970FB6F894DEBF0FBECDBFDD
:101AB0008091A3049091A404892B09F495C006E1B8
:101AC00010E060E472E0CE0107960E943730A80172
:101AD00061EA74E0CE0101960E941E0DBE01695FAD
:101AE0007F4FCE0101960E94A031F82ECE010196C3
:101AF0000E94C92FCE0107960E94C92FFF2009F42A
:101B00006FC0A80161EA74E0CE0101960E941E0D2B
:101B10002D813E8141E050E0BE016F5F7F4FCE01DD
:101B200007960E94E231BE01695F7F4F8AE297E02B
:101B30000E94782ECE0107960E94C92FCE010196F1
:101B40000E94C92FA80161EA74E0CE0101960E94AB
:101B50001E0D2D813E8141E050E0BE016F5F7F4F41
:101B6000CE0107960E94E231BE01695F7F4F87EC8C
:101B700097E00E94782ECE0107960E94C92FCE01D1
:101B800001960E94C92FA80161EA74E0CE01079670
:101B90000E941E0D6EE872E0CE0101960E94373061
:101BA000BE01695F7F4FCE0101960E942131BC01C9
:101BB000CE010D960E946330AE01435F5F4FB801C6
:101BC00081EA94E00E94350DCE010D960E94C92F46
:101BD000CE0101960E94C92FCE0107960E94C92FFF
:101BE0000150110908F06DCF62960FB6F894DEBF70
:101BF0000FBECDBFDF91CF911F910F91FF90089540
:101C0000AF92BF92CF92DF92EF92FF920F931F930A
:101C1000CF93DF9300D000D000D0CDB7DEB77C01EA
:101C20008B0157FD08C0DB0112968D919C91139793
:101C30004817590734F063E272E0C7010E94373059
:101C40004CC04115510539F4DB01ED91FC9106843E
:101C5000F785E02D0AC001974817590751F4DB01B9
:101C6000ED91FC910484F585E02DB801C70109953B
:101C700034C0BA0161507109C8010E94E1085C01D9
:101C8000FC01C680D780B601CE0101960E94633068
:101C9000D5011696ED91FC9117978681978117963D
:101CA0009C938E931697C114D10431F0C6010E9403
:101CB000C92FC6010E94392EF801828193810197B4
:101CC000938382831486BE016F5F7F4FC7010E949A
:101CD0006330CE0101960E94C92FC70126960FB628
:101CE000F894DEBF0FBECDBFDF91CF911F910F9152
:101CF000FF90EF90DF90CF90BF90AF900895E1EA12
:101D0000F4E08EE493E0918380831582148217823D
:101D1000168213821282118610861386128614860A
:101D200063E272E08BE994E00E9437308DE894E042
:101D30000E94FC048FE794E00E94FC0481E794E099
:101D40000E94FC0483E694E00E94FC0485E594E094
:101D50000E94FC048FED93E00E94832487EB93E0C4
:101D60000E94691260E972E081EB93E00E943730D3
:101D700063E272E08AEA93E00E9437300E94482AC8
:101D80006093A6037093A7038093A8039093A9037D
:101D90000895CF93DF938AEA93E00E94C92F81EBE5
:101DA00093E00E94C92F85E594E00E94C92F83E645
:101DB00094E00E94C92F81E794E00E94C92F8FE729
:101DC00094E00E94C92F8DE894E00E94C92F8BE90E
:101DD00094E00E94C92F8EE493E09093A204809334
:101DE000A104C091A504D091A604209769F08E812A
:101DF0009F819093A6048093A504CE010E94C92FD1
:101E0000CE010E94392EEDCFDF91CF910895CF936F
:101E1000DF93D1E087EC97E00E949F2B892B79F02C
:101E200087EC97E00E94B92BC82F682F8AEA93E0CD
:101E30000E94DD30CA3071F7D093B003EBCFDF9151
:101E4000CF9108950F931F93CF93DF93CDB7DEB754
:101E5000C254D1090FB6F894DEBF0FBECDBF182F04
:101E600063E272E0CE01CD960E943730812F110FD0
:101E7000990BAA0BBB0BFC01B397E731F10508F0F6
:101E8000ABC1EE58FF4F0C94213410921A021092FD
:101E90001902A2C181E090E01DC182E090E0909320
:101EA0001A02809319028091D20381110DC064E05F
:101EB00088EB94E00E94F912882331F064E972E023
:101EC0008AE297E00E94A52E81E08093D20321E070
:101ED0004FE152E068EB74E0CE0101960E940C14D1
:101EE0008B819C819093BA038093B9038D819E81ED
:101EF000AF81B8858093BB039093BC03A093BD03CF
:101F0000B093BE0389859A85AB85BC858093BF035A
:101F10009093C003A093C103B093C2038DE0FE0170
:101F20003D96A3ECB3E001900D928A95E1F78A8D7E
:101F30009B8D9093D1038093D003CE014C960E9449
:101F400069128091B9039091BA039C838B8380912D
:101F5000BB039091BC03A091BD03B091BE038D83E0
:101F60009E83AF83B8878091BF039091C003A091F7
:101F7000C103B091C20389879A87AB87BC8786E685
:101F800093E09A8389838DE0E3ECF3E0DE011D9614
:101F900001900D928A95E1F78091D0039091D10341
:101FA0009B8F8A8FBE01645E7F4FCE0101960E9497
:101FB000DF0360EA72E08AE297E00E94862ECE019B
:101FC0004C960E947C12BC018AE297E00E94A52EEA
:101FD0006EEA72E08AE297E00E94862ECE014C966D
:101FE0000E949B12AB01BC018AE0769567955795DC
:101FF00047958A95D1F72AE030E08AE297E00E947F
:102000005E2F6CEB72E08AE297E00E94A52E8AE2D6
:1020100097E00E948F2E63E272E0CE01C7960E9485
:10202000373000E010E0CE014C960E94AB12892BB5
:1020300009F447C0CE014C960E940012682F8AE234
:1020400097E00E944D2C4DE0BE01645E7F4FCE01B3
:1020500001960E94A12FBE016F5F7F4FCE01C796F0
:102060000E944C30CE0101960E94C92F60EC72E0B4
:102070008AE297E00E94862E4AE050E0B8018AE2A8
:1020800097E00E94572F6BEA72E08AE297E00E9485
:10209000862EBE01695C7F4F8AE297E00E94782E0F
:1020A00066EC72E08AE297E00E94862E6BAD7CAD12
:1020B0004AE050E08AE297E00E946B2F0F5F1F4FCB
:1020C000B2CFCE014C960E94DA12CE01C79682C0E2
:1020D00083E090E090931A02809319027DC0809172
:1020E000510490915204892B19F00E94700B74C016
:1020F0000E94280B71C06FEC72E062C063ED72E069
:102100005FC060E972E081EB93E00E945B3188235D
:1021100089F066ED72E0CE0101960E943730CE0163
:1021200001960E948D09CE0101960E94C92F69EE89
:1021300072E010C06DEE72E0CE0101960E94373061
:10214000CE0101960E948D09CE0101960E94C92FF1
:1021500060E972E081EB93E00E946C303DC06DE07D
:1021600087EC97E00E944D2C87EC97E00E949F2B14
:10217000892B91F187EC97E00E949F2B892B51F0DE
:1021800087EC97E00E94B92B682FCE01CD960E9474
:10219000DD30F0CFBE01635C7F4F8AE297E00E94A2
:1021A000932E60E073E08AE297E00E94A52E14C0AF
:1021B00061E173E005C064E273E002C067E373E0CD
:1021C000CE0101960E943730CE0101960E948D0902
:1021D000CE0101960E94C92FCE01CD960E94C92F33
:1021E000CE5BDF4F0FB6F894DEBF0FBECDBFDF91E1
:1021F000CF911F910F9108958FED93E00E94AD272D
:1022000080934E04882361F06AE070E080E090E003
:102210000E94910480914E040E94220F10924E045D
:1022200008950F931F93CF93DF9300D000D000D079
:10223000CDB7DEB70E9453040E944B0D0E94070FDA
:102240008091B003882391F06091AE037091AF0349
:102250006115710589F50AC00E94A30563E272E069
:102260008AEA93E00E946C301092B0030E94482AE0
:102270000091A6031091A7032091A8033091A90310
:10228000DC01CB01801B910BA20BB30B8997A1053D
:10229000B10508F459C00E94790A0E94FC100E94FE
:1022A000340C0E94482A6093A6037093A70380937E
:1022B000A8039093A90348C0625071098AEA93E089
:1022C0000E945A326AEA73E0CE0101960E9463309E
:1022D000CE0101960E94620CCE0101960E94C92F88
:1022E00060E472E0CE0101960E943730BE016F5F5C
:1022F0007F4F8AEA93E00E94A031182FCE01019609
:102300000E94C92F112309F4A9CF6AE872E0CE0117
:1023100001960E943730BE016F5F7F4F8AEA93E0DB
:102320000E94AF31182FCE0101960E94C92F1111C2
:1023300093CF6091AE037091AF03615071098AEA47
:1023400093E00E945A32E1CF26960FB6F894DEBF92
:102350000FBECDBFDF91CF911F910F910895CF9305
:10236000DF931F92CDB7DEB76983DC01ED91FC915D
:102370000280F381E02D41E050E0BE016F5F7F4FAE
:1023800009950F90DF91CF910895CF93DF93EC01E2
:10239000898D9A8D009739F481E090E09B838A8340
:1023A00080E090E00BC0FC01138212820E94171E95
:1023B000E98DFA8D22813381232B71F7DF91CF9143
:1023C0000895FC01818D928D009711F00C94AE1B45
:1023D0000895CF93DF931F92CDB7DEB741E050E071
:1023E000BE016F5F7F4F0E949419019719F4898194
:1023F00090E002C08FEF9FEF0F90DF91CF91089593
:10240000FC01818D928D009711F00C94E9118FEFF2
:102410009FEF08950F931F93CF93DF93FC01818D5E
:10242000928D0097B9F0EF010E94E9118C010F3FE6
:102430008FEF180791F0898D9A8DFC0142855385A5
:102440006485758541505109610971090E94181B05
:10245000C80105C080E090E002C08FEF9FEFDF91E0
:10246000CF911F910F910895EF92FF920F931F93B9
:10247000CF93DF93EC017B018A011B821A8288EEE5
:1024800093E0A0E0B0E08C839D83AE83BF8386E6BB
:1024900093E0998388838DE190E00E9464349A8F61
:1024A000898F009779F02DE1F701DC0101900D9201
:1024B0002A95E1F74CE050E0B801CE010C960E945D
:1024C000E036188EDF91CF911F910F91FF90EF9022
:1024D0000895FC011382128288EE93E0A0E0B0E040
:1024E00084839583A683B78386E693E09183808374
:1024F000128E118E148608950C960895DC0159965B
:10250000ED91FC915A97309721F081E095819230BE
:1025100008F480E00895DC015996ED91FC915A97FA
:10252000309729F0628573858485958508956FEFCE
:102530007FEFCB010895DC015996ED91FC915A97FC
:10254000309729F06389748985899689089560E0B8
:1025500070E0CB010895CF92DF92EF92FF92CF937C
:10256000DF93FC01218D328D232BD9F0EC010E94E9
:102570009B126B017C01CE010E948B12A701960178
:10258000261B370B480B590BDA01C901811530E8BE
:102590009307A105B10538F08FEF9FE7A0E0B0E009
:1025A00002C080E090E0DF91CF91FF90EF90DF904C
:1025B000CF900895CF93DF93EC01898D9A8D00978A
:1025C00041F00E94F51B898D9A8D0E94F9341A8E74
:1025D000198EDF91CF910895DC015996ED91FC9110
:1025E0005A97309721F081E09581911101C080E0E8
:1025F00008950F931F93CF93DF93EC01462F61E073
:102600000E943216882391F08E01045F1F4F41E033
:10261000BE01C8010E945B23882351F0B801CE019E
:102620008A960E94431991E081110AC090E008C087
:1026300040E0BE01C8010E945B238823B9F3EECFBE
:10264000892FDF91CF911F910F910895FC01DB013C
:1026500012968D919C9113979383828386E793E0E2
:102660009183808314968C911497848315968C9112
:102670001597858316964D915D916D917C91199773
:1026800046835783608771871A964D915D916D914E
:102690007C911D9742875387648775871E964D915D
:1026A0005D916D917C91519746875787608B718BB7
:1026B00052968C915297828B53964D915D916D916C
:1026C0007C915697438B548B658B768B57964D91A7
:1026D0005D916D917C915A97478B508F618F728F6E
:1026E0005B968D919C915C97948F838F08954F9208
:1026F0005F926F927F928F929F92AF92BF92CF9292
:10270000DF92EF92FF920F931F93CF93DF93CDB79A
:10271000DEB7C754D1090FB6F894DEBF0FBECDBFE8
:102720006C015A014901665D7F4F7E018EE1E80E22
:10273000F11CC7010E9426131C821B8286E793E0CE
:102740009A8389831E828501FE0131963F0127010C
:102750006FE270E0C8010E94B7360097D9F1F80126
:1027600020812F3219F40F5F1F4FF2CF801B8D3065
:1027700008F08CE0E82EF12CA701B801CE01CB9631
:102780000E94E036EBE3F0E0EC0FFD1FEE0DFF1DC5
:102790001082C3010E94F51B21E0AE01455C5F4F32
:1027A000B201C3010E94291D811109C0F6011382E3
:1027B000128286E793E091838083158214C00E0D08
:1027C0001F1DC2010E94F51B942D852D2301692E2A
:1027D000782EBECF0A191B09F40111830083B201C0
:1027E000C6010E942613C601C95BDF4F0FB6F894DD
:1027F000DEBF0FBECDBFDF91CF911F910F91FF9034
:10280000EF90DF90CF90BF90AF909F908F907F9090
:102810006F905F904F900895AF92BF92CF92DF92EA
:10282000FF920F931F93CF93DF93CDB7DEB7C955B8
:10283000D1090FB6F894DEBF0FBECDBF6C015B01AE
:102840008A01F22E9E01285A3F4FCE01CB960E945C
:1028500077136A968EAD9FAD6A97080F191FF8011E
:10286000808181110AC0BE01655C7F4FCE01019657
:102870000E9426134FE152E041C019A218A286E738
:1028800093E09F8F8E8F1BA221968FAD2197811190
:1028900004C0C6010E94691237C08250823060F4C1
:1028A000B501665D7F4F2F2DA801CE014E960E9487
:1028B000291D811110C0EDCF2F2DA801BE01655C2F
:1028C0007F4FCE014E960E94291D882311F3CE0121
:1028D000CB960E94F51B9F2D967041F049A95AA9ED
:1028E0006BA97CA9CE014E960E94181BBE01625EA8
:1028F0007F4FCE0101960E942613A801BE016F5F93
:102900007F4FC6010E943412C601C75ADF4F0FB66F
:10291000F894DEBF0FBECDBFDF91CF911F910F9115
:10292000FF90DF90CF90BF90AF900895DF92EF922D
:10293000FF920F931F93CF93DF93CDB7DEB7C756A8
:10294000D1090FB6F894DEBF0FBECDBF8C017B015D
:10295000D42EBE016F5F7F4FF701818D928D0E9453
:10296000991A1816D4F589818823B9F1853E89F31F
:102970008E3279F38C8583FDECCF22961FAE1EAE8E
:10298000229786E793E09FAF8EAF24961FAE2497E1
:10299000BE01655A7F4FCE0101960E94ED18F701E6
:1029A000618D728D2D2DAE01455A5F4FCE01CE96B1
:1029B0000E94291D882389F0BE01625C7F4FCE01F1
:1029C00081960E942613AE01455A5F4FBE016F5D8E
:1029D0007F4FC8010E94341203C0C8010E946912CF
:1029E000C801C959DF4F0FB6F894DEBF0FBECDBF87
:1029F000DF91CF911F910F91FF90EF90DF9008959D
:102A0000E8EBF4E0158216821186138682E090E0EE
:102A1000A0E0B0E084879587A687B78713A215A6A4
:102A200014A686E793E093A782A717A6089520919E
:102A30000F07222399F04FB7F89420910F07213008
:102A400059F42DB320930D073DB320910E07209527
:102A500023232DBB4FBF02C040930D078CBD9DBDEE
:102A600008958EBD00000DB407FEFDCF8EB508950C
:102A70008FEF0C94311580910F07882361F09FB779
:102A8000F89420910F0780910D07213019F48DBB28
:102A90009FBF08958FBF089561E0FC0184810E946B
:102AA000462B80910105882321F0109201050C949A
:102AB0003B150895CF93DF93EC01809101058111BF
:102AC00009C081E080930105809102059091030582
:102AD0000E94171560E08C81DF91CF910C94462BFA
:102AE000CF93DF93EC018E81882389F08F819885C5
:102AF0009C012F5F3F4F38872F838230924018F41C
:102B00000E943815F3CFCE010E944C151E82DF9132
:102B1000CF910895673028F026E1FC01258380E0FD
:102B20000895623081F030F4662359F06130B1F4D9
:102B300080E515C0643059F040F0653079F482E5E5
:102B40000EC080E505C081E503C081E508C082E5CF
:102B50008093020581E080930305089583E58093C7
:102B600002051092030581E008950F931F93CF9300
:102B7000DF93EB010E94482A8B010E9438158F3F9A
:102B800049F00E94482A601B710B6C177D07A8F35F
:102B900080E001C081E0DF91CF911F910F910895F6
:102BA000CF92DF92FF920F931F93CF93DF9300D0CA
:102BB00000D0CDB7DEB76C01F62E29833A834B8364
:102BC0005C830E947015C6010E945A156CE271E088
:102BD000C6010E94B5158F2D80640E94311508E151
:102BE00010E05C814B813A812981DA01C901002E14
:102BF00004C0B695A795979587950A94D2F729832F
:102C00003A834B835C830E94311508501109298156
:102C10003A814B815C81083F8FEF180731F7FF2025
:102C200029F0E8E0FE1204C087E803C085E901C08E
:102C30008FEF0E94311510E00E943815F60182874F
:102C400087FF04C01F3F11F01F5FF6CF0F900F905A
:102C50000F900F90DF91CF911F910F91FF90DF9018
:102C6000CF9008958F929F92AF92BF92EF92FF9272
:102C70000F931F93CF93DF93EC01E62E1B861986EB
:102C80001E821D824C830E94482A4B015C0161E038
:102C90008C810E940A2B61E08C810E94462B0E944D
:102CA000CE2782E5809302051092030580910205EC
:102CB000909103050E9417151AE08FEF0E943115BD
:102CC0001150D9F784010E943B15CE010E945A157C
:102CD00020E030E0A90160E0CE010E94D015F82E7E
:102CE0008A8781E0F81649F00E94482A601B710B20
:102CF000613D774068F381E04CC02AEA31E040E072
:102D000050E068E0CE010E94D01582FF02C0FB8631
:102D10000EC094E0F92E0E9438158A87FA94F110BB
:102D2000FACF8A3A11F082E034C082E08B878B853B
:102D3000823021F0812C912C540105C0812C912CE2
:102D4000A12C80E4B82E20E030E0A90167E3CE0199
:102D50000E94D015A501940169E2CE010E94D01510
:102D60008A87882349F00E94482A601B710B613DC5
:102D7000774048F388E00DC08B85823039F520E03C
:102D800030E0A9016AE3CE010E94D015882389F0C2
:102D900086E08D83CE010E944C1580E0DF91CF91BB
:102DA0001F910F91FF90EF90BF90AF909F908F90E9
:102DB00008950E943815807C803C11F483E08B8755
:102DC0000E9438150E9438150E943815CE010E94C5
:102DD0004C156E2DCE01DF91CF911F910F91FF9079
:102DE000EF90BF90AF909F908F900C948A150F93A7
:102DF0001F93CF93DF93EC010E94482A8B010E941E
:102E000038158A878F3F49F40E94482A601B710B4E
:102E10006D327140A0F38FE003C08E3F39F08DE03A
:102E20008D83CE010E944C1580E001C081E0DF91CE
:102E3000CF911F910F910895CF92DF92EF92FF9261
:102E40000F931F93CF93DF93EC016901C801820FA9
:102E5000931F8130924008F05CC08E81882371F00E
:102E600088819981AA81BB81481759076A077B0726
:102E700029F48F819885C816D90610F5488359839F
:102E80006A837B838B85833039F089E0440F551F3B
:102E9000661F771F8A95D1F79A01AB0161E1CE01D8
:102EA0000E94D015882319F083E08D8332C0CE01B3
:102EB0000E94F716882369F118861F8281E08E83AD
:102EC0008F8198858C159D0540F40E9438158F815F
:102ED0009885019698878F83F3CF6701E00EF11EE6
:102EE000CE14DF0431F00E943815F60181936F0192
:102EF000F7CF8F819885080F191F18870F83898551
:102F0000882319F00115124048F0CE010E94701577
:102F100005C0CE010E944C1580E001C081E0DF9128
:102F2000CF911F910F91FF90EF90DF90CF90089578
:102F3000EF92FF920F931F930115110519F00E9454
:102F40001C1701C081E01F910F91FF90EF90089531
:102F5000EF92FF920F931F93790100E012E020E0BF
:102F600030E00E941C171F910F91FF90EF90089581
:102F7000CF92DF92EF92FF920F931F93CF93DF9345
:102F800000D0CDB7DEB78C01862F49835A830E94CB
:102F900031154981C42E5A81D52E76018EEFF81A4B
:102FA000F60181916F010E943115CE14DF04C1F743
:102FB0008FEF0E9431158FEF0E9431150E94381556
:102FC000F8018287982F9F71953039F081E18583D0
:102FD000C8010E944C1580E001C081E00F900F9065
:102FE000DF91CF911F910F91FF90EF90DF90CF90E5
:102FF00008950F931F93CF93DF93EC01890141153F
:1030000051056105710511F482E132C08B85833071
:1030100039F089E0440F551F661F771F8A95D1F755
:103020009A01AB0168E1CE010E94D015882311F00E
:1030300084E01EC0A8016EEFCE010E94B81788235D
:10304000C1F068E572E0CE010E94B515811102C0A1
:1030500085E10EC020E030E0A9016DE0CE010E94C4
:10306000D015811104C00E943815882339F084E1FD
:103070008D83CE010E944C1580E004C0CE010E94D9
:103080004C1581E0DF91CF911F910F910895E2E0FF
:10309000F5E080E5808311820895CF93DF93EC0102
:1030A0009C012A5F3F4F41E050E060E070E08B8D73
:1030B0009C8D0E94F0218823A1F08F89988DA98D85
:1030C000BA8D892B8A2B8B2B59F48E819F81A885F1
:1030D000B9858F8B988FA98FBA8F8C8180688C83EC
:1030E00081E0DF91CF910895CF92DF92EF92FF922E
:1030F0001F93CF93DF93EC010E944D18811102C002
:1031000080E04AC0EB8DFC8DCE80DF80E884F984BE
:1031100082E0C81AD108E108F108058404C0CC0C8B
:10312000DD1CEE1CFF1C0A94D2F786859785A089CA
:10313000B189C80ED91EEA1EFB1E148181E0C81A8F
:10314000D108E108F108112361F0C701B601610F50
:10315000711D811D911D0E943F20882389F211500D
:10316000F2CFEB8DFC8D80E092E0A0E0B0E0058432
:1031700004C0880F991FAA1FBB1F0A94D2F74B895E
:103180005C896D897E89840F951FA61FB71F8B8B65
:103190009C8BAD8BBE8B81E0DF91CF911F91FF9017
:1031A000EF90DF90CF900895CF93DF93EC01462FFF
:1031B0006E857F85888999890E940420882341F043
:1031C0008A8920E2829FC0011124835F9A4F02C046
:1031D00080E090E0DF91CF910895FC0120E090E045
:1031E0008EE23081303269F0283029F4DB01A90FFA
:1031F000B11D8C939F5FDB01A90FB11D30813C9302
:103200009F5F2F5F31962B3061F7FB01E90FF11DB6
:1032100010820895FB019B01255F3F4F40E24193DF
:10322000E217F307E1F7DC0190E027E08D918823B6
:1032300019F18E3219F0EEE3F2E008C02A3009F1FC
:1032400098E02AE0F3CF31963817D9F03491311154
:10325000FACF2917B0F03FED380F3E3590F431E04A
:10326000390FFB01E90FF11D9FE9980F9A3108F41E
:1032700080528083932FDACF81E0FB0190819032DE
:1032800009F480E008950F931F93CF93DF93FC011F
:103290002581222311F080E042C08B01EC01FB016B
:1032A00087898031B1F482E08D831F8A188E198E50
:1032B0001A8E808D918DA0E0B0E025E0880F991FD7
:1032C000AA1FBB1F2A95D1F78B8B9C8BAD8BBE8B16
:1032D00015C0803201F783E08D83FB01428D538D51
:1032E000648D758D4F8B588F698F7A8F9E012D5EFF
:1032F0003F4FC8010E94E720882369F21C8F0B8F83
:1033000081E08C831E821F82188619861A861B868E
:103310001C861D861E861F86188A198A1A8ADF91C6
:10332000CF911F910F9108952F923F924F925F92EC
:103330006F927F928F929F92AF92BF92CF92DF92C5
:10334000EF92FF920F931F93CF93DF93EC015B01FA
:103350004A018D81811103C08FEF9FEFD7C08C810F
:1033600080FFFACF4B885C886D887E884A855B85B4
:103370006C857D85C401A0E0B0E093018201041B4F
:10338000150B260B370B081719072A073B0718F4EC
:103390004201841A950A24011E0126E0220E311CE6
:1033A0004114510409F47EC04A855B856C857D8596
:1033B0006A0181E0D822ED818A019B0189E036957E
:1033C0002795179507958A95D1F78B8D9C8DE230BF
:1033D00061F4FC01828D938DA48DB58DBC01CD016E
:1033E000600F711F821F931F3FC0FC0174807A948D
:1033F0007022C114D104C9F4711017C0452B462B9B
:10340000472B49F48F89988DA98DBA8D8E839F8320
:10341000A887B9870AC04E815F8168857985910147
:103420000E946320882309F497CFEB8DFC8D8E8159
:103430009F81A885B9850297A109B109058404C0B7
:10344000880F991FAA1FBB1F0A94D2F7468557857C
:1034500060897189840F951FA61FB71FBC01CD011C
:10346000670D711D811D911D20E032E02C193D0971
:1034700032012415350508F439012C8126FD04C0DC
:103480006114F2E07F0679F500911B0210911C0295
:1034900020911D0230911E02601771078207930769
:1034A00019F421C0C40132C0750183019601AB013A
:1034B000BC0180910B0590910C050E949817882300
:1034C00009F44ACFA60CB71C8A859B85AC85BD85BF
:1034D000860D971DA11DB11D8A879B87AC87BD876F
:1034E000461857085DCF40E00E940420882309F465
:1034F00033CFF601E35FFA4FD501CF01860D971D5B
:10350000E817F907F9F221912D93FACFDF91CF91C6
:103510001F910F91FF90EF90DF90CF90BF90AF90F1
:103520009F908F907F906F905F904F903F902F90E3
:1035300008950F931F93CF93DF93FC0125812230D1
:1035400030F102851385248535850F7111272227D7
:103550003327012B022B032BD1F48B01EC0140E22A
:1035600050E0B801CE010E949419803269F4F8014C
:103570008081882371F0853E91F38E3281F38385BB
:1035800083FDEDCF80E206C0880F880B03C08FEF6C
:1035900001C080E0DF91CF911F910F910895FF92BC
:1035A0000F931F93CF93DF931F92CDB7DEB7FC012C
:1035B0002581223018F480E090E033C08C01FC01BA
:1035C000428553856485758585E076956795579521
:1035D00047958A95D1F7F42FFF70FF2E41E050E018
:1035E000BE016F5F7F4FC8010E949419019719F4C3
:1035F000898190E002C08FEF9FEF0196E1F2F80120
:1036000082859385A485B5854F96A11DB11D8287BE
:103610009387A487B587F0E2FF9EC0011124835FE2
:103620009A4F0F90DF91CF911F910F91FF900895C6
:103630008F929F92AF92BF92CF92DF92EF92FF92C2
:103640000F931F93CF93DF93EC018D81811102C003
:1036500080E077C00B891C892D893E8904171507E6
:1036600026073707A8F36A017B01823029F4CA864E
:10367000DB86EC86FD860DC0C114D104E104F104A3
:1036800051F41E821F82188619861A861B861C8694
:103690001D8681E056C08A849B84AC84BD84EB8DFA
:1036A000FC8D258530E0275F3F4FB501A4014150D7
:1036B000510961097109022E04C0769567955795E5
:1036C00047950A94D2F7D701C6010197A109B1091C
:1036D00004C0B695A795979587952A95D2F7841734
:1036E0009507A607B70720F089288A288B2849F470
:1036F0004F89588D698D7A8D4E835F83688779876E
:1037000004C0841B950BA60BB70B4C015D018E0109
:103710000A5F1F4F81149104A104B10409F4A7CFDB
:103720004E815F816885798598018B8D9C8D0E9483
:10373000632091E0891A9108A108B1088111EACFAC
:1037400087CFDF91CF911F910F91FF90EF90DF9086
:10375000CF90BF90AF909F908F9008950F931F933D
:10376000CF93DF93EC018D818823C9F18C8187FF92
:1037700030C061E0CE010E94D4188C01892B79F110
:103780008D81823048F48B899C89AD89BE89F8018E
:10379000848F958FA68FB78F8F89988DA98DBA8DBD
:1037A000F801938F828FB58BA48BE0910405F09183
:1037B0000505309759F0B8016A5E7F4FC8014896F9
:1037C0000995F801808D918D938B828B8C818F77F9
:1037D0008C83DF91CF911F910F910C94C91F80E0D2
:1037E000DF91CF911F910F910895CF93DF93EC015B
:1037F0000E94AE1B882311F01D8281E0DF91CF91E2
:1038000008954F925F926F927F928F929F92AF92A4
:10381000BF92EF92FF920F931F93CF93DF9300D04D
:1038200000D0CDB7DEB7FC0185818130E9F4848119
:1038300081FF1AC083899489A589B6898417950761
:10384000A607B70788F0892B8A2B8B2B09F479C040
:103850004A015B017F014284538464847584CF01F3
:103860000E94181B811102C080E06CC0F701838D9B
:10387000948D81149104A104B10471F44789508D91
:10388000618D728D0E940523882371F3F701178AD9
:10389000108E118E128E3AC0F701468157816085D5
:1038A00071859E012F5F3F4F0E9463208823E1F2C4
:1038B00049815A816B817C81F701838D948DFC0154
:1038C0002789203129F008EF1FEF2FEF3FE004C0D8
:1038D00008EF1FEF20E030E0401751076207730741
:1038E000A8F40E940523882309F4BECFF70146817E
:1038F0005781608571850FEF1FEF2FEF3FE0838DBC
:10390000948D0E945021882309F4AECFF701838A59
:10391000948AA58AB68A848180688483C7010E94BC
:10392000AE1B882309F4A0CFB501A40148145904A3
:103930006A047B0410F4B301A201C7010E94181BA2
:1039400001C081E00F900F900F900F90DF91CF9109
:103950001F910F91FF90EF90BF90AF909F908F902D
:103960007F906F905F904F9008951F93CF93DF9358
:10397000EC0180E2689FF00111249F01235F3A4F20
:10398000D9011B969C91917129F0842F827411F0BA
:1039900080E05BC0142F6A8B80911B0290911C0207
:1039A000A0911D02B0911E028E879F87A88BB98BB4
:1039B000E35FFA4F4489558960E070E0BA0155270A
:1039C00044274F8B588F698F7A8F828D938DA0E01B
:1039D000B0E0482B592B6A2B7B2B4F8B588F698F6C
:1039E0007A8FD9011B968C91887151F4848D958DB5
:1039F000A68DB78D8B8B9C8BAD8BBE8B81E00DC064
:103A0000803131F69E012D5E3F4F8B8D9C8D0E9443
:103A1000E720882309F4BCCF84E08D83812F8F7049
:103A20008C831E821F82188619861A861B861C8626
:103A30001D8616FF09C040E050E0BA01CE01DF91BB
:103A4000CF911F910C94011C81E0DF91CF911F91C8
:103A50000895CF92DF92EF92FF920F931F93CF932F
:103A6000DF93CDB7DEB72C970FB6F894DEBF0FBE4D
:103A7000CDBFFC0135813111C2C0D22E8B017C013A
:103A8000BE016F5F7F4FCA010E940A19882309F4A3
:103A9000B6C0F801838D948DF701948F838FF80160
:103AA0001682178210861186128613861486158652
:103AB00030E0F80182859385A485B58543895489D2
:103AC0006589768984179507A607B70708F041C06E
:103AD00025E0B695A795979587952A95D1F7F82F64
:103AE000FF70CF2EC8013C870E94CF1A3C850097FB
:103AF00009F485C0FC012081222309F484C0253EFD
:103B000099F04BE050E0BC01CE0101963C870E9449
:103B1000A1363C85892B69F68D2D8073803309F49D
:103B20006EC04D2D6C2D67C031116BC0F701C28A7C
:103B300040911B0250911C0260911D0270911E0267
:103B400046875787608B718BFC01808131E0811142
:103B5000B0CF8D2D8271823109F051C0332341F0F5
:103B600061E0C7010E94D4188C01892B79F447C009
:103B7000F8018581823009F442C0C8010E9474189E
:103B80008823E9F1F701128A0DE015E080E2F801DF
:103B900011928A95E9F78BE0FE013196D8010190E8
:103BA0000D928A95E1F7E0910405F09105053097B3
:103BB00039F0B801625F7F4FC8014096099509C08E
:103BC00081E298E2F801918B808B80E098E0978702
:103BD0008687F80180899189938B828B918F808F62
:103BE00086859785978B868B0E94C91F882339F01D
:103BF0004D2DF7016289C7010E94B51C09C080E004
:103C000007C031E056CF332309F490CF31E0A1CF84
:103C10002C960FB6F894DEBF0FBECDBFDF91CF91CB
:103C20001F910F91FF90EF90DF90CF9008952F920A
:103C30003F924F925F926F927F928F929F92AF923C
:103C4000BF92CF92DF92EF92FF920F931F93CF9389
:103C5000DF9300D000D0CDB7DEB78C016B013A0105
:103C6000DC0115968C9115978130C9F414968C91CE
:103C700081FF15C082FF1DC0F80143895489658901
:103C8000768982859385A485B58584179507A607CF
:103C9000B70779F0C8010E94181B81110AC081E0A2
:103CA00090E0D80113969C938E93129780E090E059
:103CB00048C1430184C0D8015B968D919C915C976B
:103CC000FC0154802FEF250D1A012B0139E0569489
:103CD0004794379427943A95D1F7522E52207A017F
:103CE000F1E0FF22552009F476C080E092E08E19C1
:103CF0009F0954018815990508F45C01D8015B9669
:103D00002D913C915C9716968D919D910D90BC9153
:103D1000A02D0297A109B109F901058404C0880FFB
:103D2000991FAA1FBB1F0A94D2F746855785608941
:103D30007189840F951FA61FB71F9C01AD01250D2A
:103D4000311D411D511D19012A01A11432E0B30694
:103D500009F088C080911B0290911C02A0911D0265
:103D6000B0911E0282159305A405B50559F48FEF95
:103D70009FEFDC0180931B0290931C02A0931D0215
:103D8000B0931E029601B201A10180910B059091A2
:103D90000C050E94F917882309F481CF9EEFD91AE8
:103DA0008A189B08F80182859385A485B5858A0DBC
:103DB0009B1DA11DB11D82879387A487B587D8015C
:103DC0001A964D915D916D917C911D97811491048E
:103DD00009F071CF87C0E114F10409F086CF16967F
:103DE0004D915D916D917C9119974115510561053A
:103DF000710559F457968D919D910D90BC91A02D10
:103E00000097A105B10541F521C09E012F5F3F4FED
:103E10000E946320882309F44ACF89819A81AB816B
:103E2000BC81F801238D348DF9012789203129F0D7
:103E300048EF5FEF6FEF7FE004C048EF5FEF60E0B7
:103E400070E084179507A607B70730F0C8010E94F5
:103E50004D1881114ACF23CFF80186839783A0871D
:103E6000B18743CFE114F10429F5D8011A964D9199
:103E70005D916D917C911D9753968D919D910D90C3
:103E8000BC91A02D481759076A077B0798F00E943C
:103E9000C91F882309F403CF20921B0230921C0211
:103EA00040921D0250921E0280910A05816080930B
:103EB0000A0508C041E0C201B1010E940420882324
:103EC00009F4EDCED601F701E35FFA4FCF018A0D79
:103ED0009B1DE817F90719F02D912193FACFCA0C11
:103EE000DB1C5ECF5396CD90DD90ED90FC90569705
:103EF00014968C91C416D506E606F70640F4F80130
:103F0000438B548B658B768B806884830DC02091A6
:103F1000040530910505232B39F06114710421F05B
:103F20008068D80114968C93F801848183FD02C0C7
:103F3000C30107C0C8010E94AE1B882309F4AFCE9D
:103F4000F7CF0F900F900F900F90DF91CF911F91AF
:103F50000F91FF90EF90DF90CF90BF90AF909F9028
:103F60008F907F906F905F904F903F902F9008952B
:103F7000CF93DF931F92CDB7DEB7698341E050E066
:103F8000BE016F5F7F4F0E94171E0F90DF91CF9190
:103F9000089580910A058823A9F140911B02509150
:103FA0001C0260911D0270911E022DE035E080918F
:103FB0000B0590910C050E94F917811102C080E059
:103FC000089540910605509107056091080570918C
:103FD0000905411551056105710591F02DE035E0A8
:103FE00080910B0590910C050E94F917882339F3F5
:103FF0001092060510920705109208051092090507
:1040000010920A0581E00895CF92DF92EF92FF921D
:10401000CF936B017C01C42F80911B0290911C02F5
:10402000A0911D02B0911E028C159D05AE05BF0525
:10403000D1F00E94C91F811102C080E01AC02DE09A
:1040400035E0B701A60180910B0590910C050E9407
:10405000A817882391F3C0921B02D0921C02E09211
:104060001D02F0921E0280910A05C82BC0930A051A
:1040700081E0CF91FF90EF90DF90CF900895CF92A5
:10408000DF92EF92FF926B017C010E94C91F88238F
:10409000A9F0EDE0F5E0119287E0ED30F807D9F7EF
:1040A000C0921B02D0921C02E0921D02F0921E02EE
:1040B00080910A05816080930A0581E0FF90EF906E
:1040C000DF90CF9008958F929F92AF92BF92CF9240
:1040D000DF92EF92FF920F931F93CF93DF93FC0138
:1040E00081859285A385B4850196A11DB11D841794
:1040F0009507A607B70710F480E05CC08389948910
:10410000A589B689C789C03129F4852E962EA72E98
:10411000BB2409C04A015B01C7E0B694A7949794F9
:104120008794CA95D1F7E9016A017B018F01BC012F
:10413000CD01680D791D8A1D9B1D80901B029090FA
:104140001C02A0901D02B0901E02681579058A0518
:104150009B0599F4F80187898031A9F4B701A6017C
:10416000552766277727440F551FFA01E35FFA4F5B
:1041700080819181A0E0B0E018C040E00E9404205E
:104180008111E8CFB9CFB701A6014F775527662730
:104190007727440F551F440F551FFA01E35FFA4F6D
:1041A00080819181A281B381BF7088839983AA8322
:1041B000BB8381E0DF91CF911F910F91FF90EF9032
:1041C000DF90CF90BF90AF909F908F9008954F92C7
:1041D0005F926F927F92AF92BF92CF92DF92EF92F7
:1041E000FF920F931F93CF93DF9300D000D0CDB7F2
:1041F000DEB78C0149835A836B837C835901C12CC0
:10420000D12C7601412C82E0582E612C712C4981F1
:104210005A816B817C819E012F5F3F4FC8010E94B4
:104220006320882351F1D301C201F801058404C041
:10423000880F991FAA1FBB1F0A94D2F7C80ED91E58
:10424000EA1EFB1E49815A816B817C8187898031FE
:1042500029F088EF9FEFAFEFBFE004C088EF9FEF3A
:10426000A0E0B0E0481759076A077B0780F2F50124
:10427000C082D182E282F38281E00F900F900F9092
:104280000F90DF91CF911F910F91FF90EF90DF90F2
:10429000CF90BF90AF907F906F905F904F900895B8
:1042A0004F925F926F927F928F929F92AF92BF9246
:1042B000CF92DF92EF92FF920F931F93CF93DF93F2
:1042C000EC016A017B012801390142305105610589
:1042D000710510F480E073C089859A85AB85BC8533
:1042E0000196A11DB11D84179507A607B70790F386
:1042F0008B889C88AD88BE888F89803129F4BB2744
:10430000AF2D9E2D8D2D09C0DB01CA0147E0B6956A
:10431000A795979587954A95D1F7880E991EAA1E5D
:10432000BB1E80911B0290911C02A0911D02B091B6
:104330001E0288169906AA06BB0679F48F89803179
:10434000A1F4DD24EE24FF24C601880F991FFC018F
:10435000E35FFA4F5182408219C040E0C501B401C9
:104360000E9404208111EACFB5CFE894C7F8DD247C
:10437000EE24FF24C601880F991F880F991FFC01A6
:10438000E35FFA4F408251826282738280910A0514
:10439000816080930A058A89823080F08D819E81B8
:1043A000AF81B885880E991EAA1EBB1E8092060595
:1043B00090920705A0920805B092090581E0DF916F
:1043C000CF911F910F91FF90EF90DF90CF90BF9012
:1043D000AF909F908F907F906F905F904F900895D7
:1043E0002F923F924F925F926F927F929F92AF92E5
:1043F000BF92CF92DF92EF92FF920F931F93CF93D2
:10440000DF93CDB7DEB760970FB6F894DEBF0FBE6F
:10441000CDBF5C0149875A876B877C871901D90119
:10442000CD90DD90ED90FC90C114D104E104F10435
:1044300031F0BFEFCB1ADB0AEB0AFB0A10C0FC011C
:10444000C080D180E280F3809924939409851A85F5
:104450002B853C85013011052105310509F0912C92
:10446000F50181859285A385B4858C019D010F5F3F
:104470001F4F2F4F3F4F0D871E872F87388B2601E9
:1044800037011D821E821F821886F5018185928563
:10449000A385B4850D811E812F81388508171907E2
:1044A0002A073B0708F056C02D853E854F85588961
:1044B000241535054605570550F482E0482E512C49
:1044C000612C712C92E0C92ED12CE12CF12C9E0193
:1044D0002F5F3F4FB301A201C5010E9463208823D3
:1044E000C9F149815A816B817C81D301C201019656
:1044F000A11DB11D452B462B472B19F06C017D01E9
:104500000FC0AC01BD014C195D096E097F09098519
:104510001A852B853C85401751076207730779F090
:104520002D813E814F8158852F5F3F4F4F4F5F4F09
:104530002D833E834F8358872C013D01A6CF0FEF7B
:104540001FEF2FEF3FE0B301A201C5010E945021F0
:10455000811118C080E041C0D301C2010197A109B7
:10456000B1098D839E83AF83B88793018201AC012B
:10457000BD01C5010E945021882361F34D805E80FA
:104580006F807884C414D504E604F70428F3D101BD
:104590004D915D916D917C914115510561057105BC
:1045A00099F4F101C082D182E282F3829920A1F0D4
:1045B000FFEFCF1ADF0AEF0AFF0AD501CD92DD9295
:1045C000ED92FC92139708C097018601C5010E94E5
:1045D00050218111E6CFBECF81E060960FB6F894EE
:1045E000DEBF0FBECDBFDF91CF911F910F91FF9026
:1045F000EF90DF90CF90BF90AF909F907F906F90A3
:104600005F904F903F902F900895AF92BF92CF92BE
:10461000DF92EF92FF920F931F93CF93DF9300D01F
:1046200000D0CDB7DEB75C016A017B0182E090E08B
:10463000A0E0B0E0F50180839183A283B3839E0163
:104640002F5F3F4FB701A601C5010E946320882359
:1046500011F100E010E09801B701A601C5010E9428
:1046600050218823C1F0C980DA80EB80FC80F501FD
:104670008789803129F088EF9FEFAFEFBFE004C05A
:1046800088EF9FEFA0E0B0E0C816D906EA06FB0667
:10469000B0F281E001C080E00F900F900F900F907A
:1046A000DF91CF911F910F91FF90EF90DF90CF900E
:1046B000BF90AF9008958F929F92AF92BF92CF928A
:1046C000DF92EF92FF920F931F93CF93DF93EC0152
:1046D000142F70930C0560930B05442369F145304A
:1046E00010F080E0F2C040E060E070E0CB010E949A
:1046F00004208823B1F320E1129FA001112443502C
:104700005B4FFA01E254FE4F80818F7751F73C9660
:1047100080819181A281B38184369105A105B10583
:1047200000F33497C080D180E280F380C114D104BB
:10473000E104F10421F4D5CFC12CD12C760140E065
:10474000C701B6010E940420882359F28091180500
:10475000909119058115924021F690911D0599239C
:1047600009F4BFCF20911B0530911C05232B09F4C0
:10477000B8CF80911A05882309F4B3CF9A8B8C8324
:104780001D8690E061E070E02D85E22FAB01022EE6
:1047900002C0440F551F0A94E2F78417950731F0C1
:1047A00031E0320F3D87283078F39BCF20912305ED
:1047B000309124052115310519F040E050E008C082
:1047C00020913105309132054091330550913405E7
:1047D0002D833E834F83588780911B0590911C0544
:1047E00046015701880E991EA11CB11C8B8A9C8A18
:1047F000AD8ABE8A00911E0510911F05198F088F82
:10480000A0911D05B0E00E942A34860E971EA81EB6
:10481000B91E8A8E9B8EAC8EBD8E85E0000F111F57
:104820008A95E1F701501E4F012F11270695800E42
:10483000911EA11CB11C8E869F86A88AB98A2091E0
:104840002005309121052115310521F0A90160E0F5
:1048500070E008C040912D0550912E0560912F0504
:1048600070913005D701C60188199909AA09BB09B9
:10487000840F951FA61FB71F04C0B695A7959795DF
:104880008795EA95D2F789879A87AB87BC87853F5A
:104890002FE09207A105B10510F48CE014C0853F0C
:1048A0009F4FA105B10510F480E10DC0809139053D
:1048B00090913A05A0913B05B0913C058A8F9B8F62
:1048C000AC8FBD8F80E28F8B81E0DF91CF911F9104
:1048D0000F91FF90EF90DF90CF90BF90AF909F909F
:1048E0008F900895FC01108214821382158208951E
:1048F000862F0C94762B862F642F0C94462B862FB4
:10490000642F0C940A2B0F931F93CF93DF93EC012A
:1049100002960E9472248EE793E0998388838E0129
:10492000045E1F4FC85ADF4FC8010E9472240A5FFD
:104930001F4F0C171D07C1F7DF91CF911F910F91EA
:1049400008954F925F926F927F928F929F92AF9253
:10495000BF92CF92DF92EF920F93CF93DF93EC0150
:104960005B013A01490102960E9472248EE793E0AE
:10497000998388836E018CE1C80ED11C2E0188E5D5
:10498000480E511CC6010E94722486E0C80ED11C3C
:10499000C414D504B9F7FE01EE59FF4F718260824D
:1049A000329691828082329600833196E0823797E8
:1049B000B182A08238968AE090E09183808332961B
:1049C00084EF91E0918380833396118210827197F6
:1049D0001082118212821382C459DF4F1882DF9134
:1049E000CF910F91EF90DF90CF90BF90AF909F90BD
:1049F0008F907F906F905F904F9008952F923F928D
:104A00004F925F926F927F928F929F92AF92BF92DE
:104A1000CF92DF92EF92FF920F931F93CF93DF938A
:104A2000CDB7DEB728970FB6F894DEBF0FBECDBF67
:104A300098878F8310E04C0186E6880E911CEF80EA
:104A4000F88492E6E90EF11CD4018C911817A0F4B9
:104A5000AF81B8858D919C91F701A081B181A10FA3
:104A6000B11DFC012081318142E06C918F819885DC
:104A7000F90109951F5FE8CFF12CEF81F885E9591D
:104A8000FF4FFA83E983CF80D884F4E6CF0ED11CA0
:104A9000412C512C320143948F8198858E599F4F20
:104AA0009C838B83E981FA818081F81608F088C0A5
:104AB000AF2CB12CAF81B8858D919C91F601A0816E
:104AC000B181AA0DBB1DFC012081318141E06C91B7
:104AD0008F819885F9010995AF81B8858D919C9159
:104AE000F601A081B181AA0DBB1DFC012281338199
:104AF00040E06C918F819885F9010995D301C2013D
:104B00000F2C04C0880F991FAA1FBB1F0A94D2F74D
:104B10009C011C0120943094E12CF4018081AF8130
:104B2000B885ED91FC91E81648F50E2D10E0AB81AB
:104B3000BC818D919C91DC01A00FB11F0480F58197
:104B4000E02D6C918F8198852D833E830995000F10
:104B5000111F2D813E81EF81F885E00FF11F892B18
:104B600029F480859185822B932B04C080859185C3
:104B70008221932191878087E394CFCFD6018D91B5
:104B80009C91DC01AA0DBB1D0280F381E02D41E068
:104B90006C918F8198850995AF81B885ED91FC91D5
:104BA000D6018D919C91DC01AA0DBB1D0190F08175
:104BB000E02D40E06C918F8198850995F39472CF38
:104BC00028960FB6F894DEBF0FBECDBFDF91CF9110
:104BD0001F910F91FF90EF90DF90CF90BF90AF901B
:104BE0009F908F907F906F905F904F903F902F900D
:104BF0000895FC0180E090E0258D368D261737075B
:104C000039F0019636968A309105B1F78FEF9FEF14
:104C10000895DC0126E0629FA00DB11D112490963D
:104C20005C934E935F9721E091962C939197FC01B2
:104C3000E459FF4F208131960190F081E02D22232D
:104C400031F0309749F0611107C0DC0102C03097A4
:104C500019F05C968C91099408956F927F928F92CF
:104C60009F92AF92BF92CF92DF92EF92FF921F93EB
:104C7000CF93DF931F92CDB7DEB73C01162FFC0117
:104C800086E0689FE00DF11D112411A2878D90A18F
:104C900081309105F9F01CF4892B51F04FC082301E
:104CA0009105B1F1039709F049C040E050E034C0EC
:104CB000442309F443C041E050E0C3010E940926A7
:104CC0000E94482AF301E85AFF4F60837183828370
:104CD000938334C049830E94482AF301E85AFF4F66
:104CE000C080D180E280F3804B015C018C189D086C
:104CF000AE08BF08729680819181A0E0B0E0498142
:104D000088159905AA05BB0518F442E050E004C0D7
:104D1000411114C043E050E0612FC3010F90DF91B7
:104D2000CF911F91FF90EF90DF90CF90BF90AF9009
:104D30009F908F907F906F900C9409260F90DF9139
:104D4000CF911F91FF90EF90DF90CF90BF90AF90E9
:104D50009F908F907F906F9008952F923F924F92E7
:104D60005F926F927F928F929F92AF92BF92CF92FB
:104D7000DF92EF92FF920F931F93CF93DF9300D0B8
:104D80001F92CDB7DEB79B838A836C012CE1C20EE4
:104D9000D11C885A9F4FF6012FEF3FEF438154817A
:104DA000452B21F410823283218315823696E81731
:104DB000F907A1F7312C4A805B8036E6430E511C7F
:104DC000AA80BB8087E6A80EB11C8A809B80A0E6E3
:104DD0008A0E911CF2018081381608F05CC0212CEB
:104DE0008A819B81830D911D830D911D9C01285FFC
:104DF0003F4F7901D5016C90261408F04AC0F701A5
:104E000000811181022C02C0169507950A94E2F7E1
:104E100001701127369C30011124620C711CD401E1
:104E2000ED91FC91E60DF71D2081B3018A819B81F4
:104E300029830E94F925298197FD04C0402F4170E4
:104E4000682F1AC0019619F5012B09F1F60160E0EF
:104E500070E08081811115C0E6E0E69FC001E79F08
:104E6000900D1124EA81FB81E80FF91F248F768EC3
:104E7000658E10A2178E41E08A819B810E942D26AB
:104E800006C06F5F7F4F36966A30710511F7239425
:104E9000B1CF33949FCFEA81FB81B1962A813B81C8
:104EA000235A3F4F80E09081911181E03696E217BE
:104EB000F307C9F70F900F900F90DF91CF911F91DB
:104EC0000F91FF90EF90DF90CF90BF90AF909F90A9
:104ED0008F907F906F905F904F903F902F900895AC
:104EE000CF92DF92EF92FF920F931F93CF93DF93B6
:104EF000EC010E94482A8E01045A1F4FF801C0801D
:104F0000D180E280F380AB01BC014C195D096E09D0
:104F10007F093C9680819181A0E0B0E084179507DD
:104F2000A607B70778F4CE010E94FE24CE010E94A6
:104F3000AD26C82F0E94482AF801608371838283BE
:104F4000938301C0C0E08C2FDF91CF911F910F910F
:104F5000FF90EF90DF90CF9008950F931F93CF9322
:104F6000DF93EC018C0104591F4F81E0F80180832D
:104F7000CE010E947027882349F089A1882331F04F
:104F80008F8D98A1019711F48C8D03C0F8011082C8
:104F900080E0DF91CF911F910F910895CF93CFB70C
:104FA000F89480911007811127C0EFE0F3E084911D
:104FB000E9ECF2E09491E82FF0E0EE0FFF1FEC5ADD
:104FC000FC4FA591B491EC91E92321F461E085E3D4
:104FD0000E94462B61E085E30E940A2B8CB580611C
:104FE0008CBD8CB580648CBD61E084E30E940A2B8B
:104FF00061E083E30E940A2B809110078F5F80930A
:105000001007CFBFCF910895883008F06EC0A82F49
:10501000B0E0AA0FBB1FAF5EB84F11967C936E93A2
:1050200090E0FC013197E730F10590F5E757FF4F2D
:105030000C942134809169008C7F482B4093690047
:10504000E89A089580916900440F551F440F551F39
:10505000837F482B40936900E99A08958091690005
:1050600074E0440F551F7A95E1F78F7C482B4093ED
:105070006900EA9A08958091690066E0440F551F1F
:105080006A95E1F78F73482B40936900EB9A089576
:1050900080916A008C7F482B40936A00EC9A0895B7
:1050A00080916A00440F551F440F551F837F482B82
:1050B00040936A00ED9A089580916A0024E0440FBD
:1050C000551F2A95E1F78F7C482B40936A00EE9A92
:1050D000089580916A0096E0440F551F9A95E1F774
:1050E0008F73482B40936A00EF9A08951F920F9296
:1050F0000FB60F9211240BB60F922F933F934F933D
:105100005F936F937F938F939F93AF93BF93EF932F
:10511000FF938091150790911607892B29F0E09154
:105120001507F09116070995FF91EF91BF91AF9187
:105130009F918F917F916F915F914F913F912F91AF
:105140000F900BBE0F900FBE0F901F9018951F92DF
:105150000F920FB60F9211240BB60F922F933F931D
:105160004F935F936F937F938F939F93AF93BF936F
:10517000EF93FF938091170790911807892B29F0DF
:10518000E0911707F09118070995FF91EF91BF91F2
:10519000AF919F918F917F916F915F914F913F91CF
:1051A0002F910F900BBE0F900FBE0F901F90189570
:1051B0001F920F920FB60F9211240BB60F922F93DE
:1051C0003F934F935F936F937F938F939F93AF938F
:1051D000BF93EF93FF938091190790911A07892B42
:1051E00029F0E0911907F0911A070995FF91EF91C5
:1051F000BF91AF919F918F917F916F915F914F91EF
:105200003F912F910F900BBE0F900FBE0F901F90EC
:1052100018951F920F920FB60F9211240BB60F9292
:105220002F933F934F935F936F937F938F939F93AE
:10523000AF93BF93EF93FF9380911B0790911C074F
:10524000892B29F0E0911B07F0911C070995FF912C
:10525000EF91BF91AF919F918F917F916F915F91EE
:105260004F913F912F910F900BBE0F900FBE0F905B
:105270001F9018951F920F920FB60F9211240BB624
:105280000F922F933F934F935F936F937F938F93DF
:105290009F93AF93BF93EF93FF93809111079091EA
:1052A0001207892B29F0E0911107F0911207099557
:1052B000FF91EF91BF91AF919F918F917F916F91EE
:1052C0005F914F913F912F910F900BBE0F900FBEAA
:1052D0000F901F9018951F920F920FB60F921124E6
:1052E0000BB60F922F933F934F935F936F937F93E0
:1052F0008F939F93AF93BF93EF93FF938091130787
:1053000090911407892B29F0E0911307F09114076D
:105310000995FF91EF91BF91AF919F918F917F91EF
:105320006F915F914F913F912F910F900BBE0F9016
:105330000FBE0F901F9018951F920F920FB60F92ED
:1053400011240BB60F922F933F934F935F936F935C
:105350007F938F939F93AF93BF93EF93FF9380912E
:105360001D0790911E07892B29F0E0911D07F091F0
:105370001E070995FF91EF91BF91AF919F918F917A
:105380007F916F915F914F913F912F910F900BBE45
:105390000F900FBE0F901F9018951F920F920FB68F
:1053A0000F9211240BB60F922F933F934F935F935D
:1053B0006F937F938F939F93AF93BF93EF93FF93DD
:1053C00080911F0790912007892B29F0E0911F07FA
:1053D000F09120070995FF91EF91BF91AF919F91B7
:1053E0008F917F916F915F914F913F912F910F908E
:1053F0000BBE0F900FBE0F901F9018951F920F922B
:105400000FB60F9211242F933F938F939F93AF93D7
:10541000BF938091220790912307A0912407B09118
:1054200025073091210723E0230F2D3720F4019623
:10543000A11DB11D05C026E8230F0296A11DB11DB7
:10544000209321078093220790932307A09324079A
:10545000B09325078091260790912707A0912807F0
:10546000B09129070196A11DB11D80932607909345
:105470002707A0932807B0932907BF91AF919F9169
:105480008F913F912F910F900FBE0F901F90189505
:105490002FB7F89460912207709123078091240719
:1054A000909125072FBF0895789484B5826084BDBC
:1054B00084B5816084BD85B5826085BD85B5816018
:1054C00085BDEEE6F0E0808181608083E1E8F0E078
:1054D0001082808182608083808181608083E0E8A7
:1054E000F0E0808181608083E1EBF0E08081846086
:1054F0008083E0EBF0E0808181608083E1E9F0E08F
:10550000808182608083808181608083E0E9F0E037
:10551000808181608083E1EAF0E080818260808325
:10552000808181608083E0EAF0E080818160808317
:10553000E1E2F1E08081826080838081816080830C
:10554000E0E2F1E0808181608083EAE7F0E0808141
:105550008460808380818260808380818160808399
:105560008081806880831092C100089590E0FC01E2
:105570003197E231F10508F04CC0E057FF4F0C9431
:105580002134809180008F7703C0809180008F7DCF
:1055900080938000089580918000877FF9CF84B543
:1055A0008F7702C084B58F7D84BD08958091B0004F
:1055B0008F7703C08091B0008F7D8093B0000895F5
:1055C000809190008F7707C0809190008F7D03C0FD
:1055D00080919000877F8093900008958091A00033
:1055E0008F7707C08091A0008F7D03C08091A000BD
:1055F000877F8093A0000895809120018F7707C056
:10560000809120018F7D03C080912001877F80934E
:1056100020010895CF93DF9390E0FC01EC56FD4FFD
:105620002491FC01E652FD4F8491882361F190E0C2
:10563000880F991FFC01EC5AFC4FC591D491FC01D5
:10564000E65CFC4FA591B491611109C09FB7F89435
:105650008881209582238883EC912E230BC06230B1
:1056600061F49FB7F8943881822F809583238883D3
:10567000EC912E2B2C939FBF06C08FB7F894E88136
:105680002E2B28838FBFDF91CF9108951F93CF9347
:10569000DF93282F30E0F901E25BFD4F8491F9019F
:1056A000EC56FD4FD491F901E652FD4FC491CC2345
:1056B000C9F0162F81110E94B62AEC2FF0E0EE0FF0
:1056C000FF1FE65CFC4FA591B4918FB7F8941111C0
:1056D00005C09C91ED2FE095E92302C0EC91ED2BE4
:1056E000EC938FBFDF91CF911F910895CF93DF93FC
:1056F000282F30E0F901E25BFD4F8491F901EC566F
:10570000FD4FD491F901E652FD4FC491CC2391F0A5
:1057100081110E94B62AEC2FF0E0EE0FFF1FE05E31
:10572000FC4FA591B491EC91ED2381E090E021F440
:1057300080E002C080E090E0DF91CF910895FC010D
:10574000918D228D892F90E0805C9F4F821B910963
:105750008F7399270895FC01918D828D981731F0F0
:10576000828DE80FF11D858D90E008958FEF9FEFFA
:105770000895FC01918D828D981761F0828DDF0173
:10578000A80FB11D5D968C91928D9F5F9F73928F34
:1057900090E008958FEF9FEF089589E59DE2892BB2
:1057A00041F087E09FE0892B21F00E94592D811163
:1057B00025C080E090E0892B41F080E090E0892BCB
:1057C00021F00E94000081111CC080E090E0892B34
:1057D00041F080E090E0892B21F00E9400008111CF
:1057E00013C080EF9DE2892BA1F080E090E0892B2F
:1057F00081F00E94F02D81110AC008950E94070FC8
:10580000D8CF0E940000E1CF0E940000EACF0C94A4
:1058100000000895FC01848DDF01A80FB11DA35A7B
:10582000BF4F2C91848D90E001968F739927848FC0
:10583000A689B7892C93A089B1898C9180648C93B7
:10584000938D848D981306C00288F389E02D8081A2
:105850008F7D80830895CF93DF93EC01888D88231B
:10586000C9F0EA89FB89808185FD05C0A889B989CD
:105870008C9186FD0FC00FB607FCF5CF808185FFA8
:10588000F2CFA889B9898C9185FFEDCFCE010E9416
:105890000A2CE7CFDF91CF910895EF92FF920F93FB
:1058A0001F93CF93DF93EC0181E0888F9B8D8C8DCC
:1058B000981305C0E889F989808185FD24C0F62EFA
:1058C0000B8D10E00F5F1F4F0F731127E02E8C8D93
:1058D000E8120CC00FB607FCFACFE889F98980817D
:1058E00085FFF5CFCE010E940A2CF1CF8B8DFE01F2
:1058F000E80FF11DE35AFF4FF0820B8FEA89FB8915
:105900008081806207C0EE89FF896083E889F98918
:1059100080818064808381E090E0DF91CF911F914E
:105920000F91FF90EF900895CF92DF92EF92FF9248
:105930001F93CF93DF93EC016A017B01122FE8895B
:10594000F98982E080834115514E61057105B1F0FE
:1059500060E079E08DE390E0A70196010E94FF33BB
:10596000DA01C9010197A109B109B695A7959795E3
:105970008795AC01411580E15807A8F0E889F989BD
:10598000108260E874E88EE190E0A70196010E9421
:10599000FF33BA01A9014150510961097109769596
:1059A000679557954795EC85FD855083EE85FF8576
:1059B0004083188EEC89FD891083EA89FB898081F8
:1059C00080618083EA89FB89808188608083EA899D
:1059D000FB89808180688083EA89FB8980818F7D53
:1059E0008083DF91CF911F91FF90EF90DF90CF9058
:1059F00008951F920F920FB60F9211240BB60F92BB
:105A00002F938F939F93EF93FF93E0913A07F09139
:105A10003B078081E0914007F091410782FD12C071
:105A20009081809143078F5F8F7320914407821785
:105A300051F0E0914307F0E0E65DF84F958F8093D9
:105A4000430701C08081FF91EF919F918F912F912A
:105A50000F900BBE0F900FBE0F901F9018951F92C6
:105A60000F920FB60F9211240BB60F922F933F9304
:105A70004F935F936F937F938F939F93AF93BF9356
:105A8000EF93FF938AE297E00E940A2CFF91EF9137
:105A9000BF91AF919F918F917F916F915F914F9146
:105AA0003F912F910F900BBE0F900FBE0F901F9044
:105AB00018958AE297E00E949F2B21E0892B09F438
:105AC00020E0822F0895EAE2F7E01382128288EE46
:105AD00093E0A0E0B0E084839583A683B78388E851
